{
  "contractName": "Factory",
  "abi": [
    {
      "inputs": [],
      "stateMutability": "nonpayable",
      "type": "constructor"
    },
    {
      "anonymous": false,
      "inputs": [
        {
          "indexed": true,
          "internalType": "address",
          "name": "owner",
          "type": "address"
        },
        {
          "indexed": false,
          "internalType": "address",
          "name": "token",
          "type": "address"
        }
      ],
      "name": "TokenCreated",
      "type": "event"
    },
    {
      "inputs": [],
      "name": "owner",
      "outputs": [
        {
          "internalType": "address",
          "name": "",
          "type": "address"
        }
      ],
      "stateMutability": "view",
      "type": "function"
    },
    {
      "inputs": [
        {
          "internalType": "uint256",
          "name": "",
          "type": "uint256"
        }
      ],
      "name": "tokens",
      "outputs": [
        {
          "internalType": "string",
          "name": "name",
          "type": "string"
        },
        {
          "internalType": "string",
          "name": "symbol",
          "type": "string"
        },
        {
          "internalType": "address",
          "name": "owner",
          "type": "address"
        },
        {
          "internalType": "address",
          "name": "deployedAt",
          "type": "address"
        }
      ],
      "stateMutability": "view",
      "type": "function"
    },
    {
      "inputs": [
        {
          "internalType": "string",
          "name": "name_",
          "type": "string"
        },
        {
          "internalType": "string",
          "name": "symbol_",
          "type": "string"
        },
        {
          "internalType": "uint256",
          "name": "initial_",
          "type": "uint256"
        }
      ],
      "name": "createToken",
      "outputs": [
        {
          "internalType": "address",
          "name": "",
          "type": "address"
        }
      ],
      "stateMutability": "nonpayable",
      "type": "function"
    },
    {
      "inputs": [],
      "name": "getTokens",
      "outputs": [
        {
          "components": [
            {
              "internalType": "string",
              "name": "name",
              "type": "string"
            },
            {
              "internalType": "string",
              "name": "symbol",
              "type": "string"
            },
            {
              "internalType": "address",
              "name": "owner",
              "type": "address"
            },
            {
              "internalType": "address",
              "name": "deployedAt",
              "type": "address"
            }
          ],
          "internalType": "struct Factory.TokenInformation[]",
          "name": "",
          "type": "tuple[]"
        }
      ],
      "stateMutability": "view",
      "type": "function"
    }
  ],
  "bytecode": "0x608060405234801561001057600080fd5b50336000806101000a81548173ffffffffffffffffffffffffffffffffffffffff021916908373ffffffffffffffffffffffffffffffffffffffff160217905550612ba1806100606000396000f3fe60806040523480156200001157600080fd5b5060043610620000525760003560e01c80634f64b2be14620000575780635b06053014620000905780638da5cb5b14620000c6578063aa6ca80814620000e8575b600080fd5b6200007560048036038101906200006f919062000808565b6200010a565b60405162000087949392919062000923565b60405180910390f35b620000ae6004803603810190620000a8919062000acf565b620002ab565b604051620000bd919062000b69565b60405180910390f35b620000d062000496565b604051620000df919062000b69565b60405180910390f35b620000f2620004ba565b60405162000101919062000d2b565b60405180910390f35b600181815481106200011b57600080fd5b9060005260206000209060040201600091509050806000018054620001409062000d7e565b80601f01602080910402602001604051908101604052809291908181526020018280546200016e9062000d7e565b8015620001bf5780601f106200019357610100808354040283529160200191620001bf565b820191906000526020600020905b815481529060010190602001808311620001a157829003601f168201915b505050505090806001018054620001d69062000d7e565b80601f0160208091040260200160405190810160405280929190818152602001828054620002049062000d7e565b8015620002555780601f10620002295761010080835404028352916020019162000255565b820191906000526020600020905b8154815290600101906020018083116200023757829003601f168201915b5050505050908060020160009054906101000a900473ffffffffffffffffffffffffffffffffffffffff16908060030160009054906101000a900473ffffffffffffffffffffffffffffffffffffffff16905084565b60008084848433604051620002c090620006fb565b620002cf949392919062000dc5565b604051809103906000f080158015620002ec573d6000803e3d6000fd5b509050600060405180608001604052808781526020018681526020013373ffffffffffffffffffffffffffffffffffffffff1681526020018373ffffffffffffffffffffffffffffffffffffffff168152509050600181908060018154018082558091505060019003906000526020600020906004020160009091909190915060008201518160000190805190602001906200038a92919062000709565b506020820151816001019080519060200190620003a992919062000709565b5060408201518160020160006101000a81548173ffffffffffffffffffffffffffffffffffffffff021916908373ffffffffffffffffffffffffffffffffffffffff16021790555060608201518160030160006101000a81548173ffffffffffffffffffffffffffffffffffffffff021916908373ffffffffffffffffffffffffffffffffffffffff16021790555050503373ffffffffffffffffffffffffffffffffffffffff167fd5f9bdf12adf29dab0248c349842c3822d53ae2bb4f36352f301630d018c81398360405162000482919062000b69565b60405180910390a281925050509392505050565b60008054906101000a900473ffffffffffffffffffffffffffffffffffffffff1681565b60606001805480602002602001604051908101604052809291908181526020016000905b82821015620006f25783829060005260206000209060040201604051806080016040529081600082018054620005149062000d7e565b80601f0160208091040260200160405190810160405280929190818152602001828054620005429062000d7e565b8015620005935780601f10620005675761010080835404028352916020019162000593565b820191906000526020600020905b8154815290600101906020018083116200057557829003601f168201915b50505050508152602001600182018054620005ae9062000d7e565b80601f0160208091040260200160405190810160405280929190818152602001828054620005dc9062000d7e565b80156200062d5780601f1062000601576101008083540402835291602001916200062d565b820191906000526020600020905b8154815290600101906020018083116200060f57829003601f168201915b505050505081526020016002820160009054906101000a900473ffffffffffffffffffffffffffffffffffffffff1673ffffffffffffffffffffffffffffffffffffffff1673ffffffffffffffffffffffffffffffffffffffff1681526020016003820160009054906101000a900473ffffffffffffffffffffffffffffffffffffffff1673ffffffffffffffffffffffffffffffffffffffff1673ffffffffffffffffffffffffffffffffffffffff168152505081526020019060010190620004de565b50505050905090565b611d4b8062000e2183390190565b828054620007179062000d7e565b90600052602060002090601f0160209004810192826200073b576000855562000787565b82601f106200075657805160ff191683800117855562000787565b8280016001018555821562000787579182015b828111156200078657825182559160200191906001019062000769565b5b5090506200079691906200079a565b5090565b5b80821115620007b55760008160009055506001016200079b565b5090565b6000604051905090565b600080fd5b600080fd5b6000819050919050565b620007e281620007cd565b8114620007ee57600080fd5b50565b6000813590506200080281620007d7565b92915050565b600060208284031215620008215762000820620007c3565b5b60006200083184828501620007f1565b91505092915050565b600081519050919050565b600082825260208201905092915050565b60005b838110156200087657808201518184015260208101905062000859565b8381111562000886576000848401525b50505050565b6000601f19601f8301169050919050565b6000620008aa826200083a565b620008b6818562000845565b9350620008c881856020860162000856565b620008d3816200088c565b840191505092915050565b600073ffffffffffffffffffffffffffffffffffffffff82169050919050565b60006200090b82620008de565b9050919050565b6200091d81620008fe565b82525050565b600060808201905081810360008301526200093f81876200089d565b905081810360208301526200095581866200089d565b905062000966604083018562000912565b62000975606083018462000912565b95945050505050565b600080fd5b600080fd5b7f4e487b7100000000000000000000000000000000000000000000000000000000600052604160045260246000fd5b620009c2826200088c565b810181811067ffffffffffffffff82111715620009e457620009e362000988565b5b80604052505050565b6000620009f9620007b9565b905062000a078282620009b7565b919050565b600067ffffffffffffffff82111562000a2a5762000a2962000988565b5b62000a35826200088c565b9050602081019050919050565b82818337600083830152505050565b600062000a6862000a628462000a0c565b620009ed565b90508281526020810184848401111562000a875762000a8662000983565b5b62000a9484828562000a42565b509392505050565b600082601f83011262000ab45762000ab36200097e565b5b813562000ac684826020860162000a51565b91505092915050565b60008060006060848603121562000aeb5762000aea620007c3565b5b600084013567ffffffffffffffff81111562000b0c5762000b0b620007c8565b5b62000b1a8682870162000a9c565b935050602084013567ffffffffffffffff81111562000b3e5762000b3d620007c8565b5b62000b4c8682870162000a9c565b925050604062000b5f86828701620007f1565b9150509250925092565b600060208201905062000b80600083018462000912565b92915050565b600081519050919050565b600082825260208201905092915050565b6000819050602082019050919050565b600082825260208201905092915050565b600062000bd0826200083a565b62000bdc818562000bb2565b935062000bee81856020860162000856565b62000bf9816200088c565b840191505092915050565b62000c0f81620008fe565b82525050565b6000608083016000830151848203600086015262000c34828262000bc3565b9150506020830151848203602086015262000c50828262000bc3565b915050604083015162000c67604086018262000c04565b50606083015162000c7c606086018262000c04565b508091505092915050565b600062000c95838362000c15565b905092915050565b6000602082019050919050565b600062000cb78262000b86565b62000cc3818562000b91565b93508360208202850162000cd78562000ba2565b8060005b8581101562000d19578484038952815162000cf7858262000c87565b945062000d048362000c9d565b925060208a0199505060018101905062000cdb565b50829750879550505050505092915050565b6000602082019050818103600083015262000d47818462000caa565b905092915050565b7f4e487b7100000000000000000000000000000000000000000000000000000000600052602260045260246000fd5b6000600282049050600182168062000d9757607f821691505b6020821081141562000dae5762000dad62000d4f565b5b50919050565b62000dbf81620007cd565b82525050565b6000608082019050818103600083015262000de181876200089d565b9050818103602083015262000df781866200089d565b905062000e08604083018562000db4565b62000e17606083018462000912565b9594505050505056fe60806040523480156200001157600080fd5b5060405162001d4b38038062001d4b83398181016040528101906200003791906200052c565b83838160039080519060200190620000519291906200023f565b5080600490805190602001906200006a9291906200023f565b505050620000a98162000082620000b360201b60201c565b600a6200009091906200076c565b846200009d9190620007bd565b620000bc60201b60201c565b5050505062000991565b60006012905090565b600073ffffffffffffffffffffffffffffffffffffffff168273ffffffffffffffffffffffffffffffffffffffff1614156200012f576040517f08c379a000000000000000000000000000000000000000000000000000000000815260040162000126906200087f565b60405180910390fd5b62000143600083836200023560201b60201c565b8060026000828254620001579190620008a1565b92505081905550806000808473ffffffffffffffffffffffffffffffffffffffff1673ffffffffffffffffffffffffffffffffffffffff1681526020019081526020016000206000828254620001ae9190620008a1565b925050819055508173ffffffffffffffffffffffffffffffffffffffff16600073ffffffffffffffffffffffffffffffffffffffff167fddf252ad1be2c89b69c2b068fc378daa952ba7f163c4a11628f55a4df523b3ef836040516200021591906200090f565b60405180910390a362000231600083836200023a60201b60201c565b5050565b505050565b505050565b8280546200024d906200095b565b90600052602060002090601f016020900481019282620002715760008555620002bd565b82601f106200028c57805160ff1916838001178555620002bd565b82800160010185558215620002bd579182015b82811115620002bc5782518255916020019190600101906200029f565b5b509050620002cc9190620002d0565b5090565b5b80821115620002eb576000816000905550600101620002d1565b5090565b6000604051905090565b600080fd5b600080fd5b600080fd5b600080fd5b6000601f19601f8301169050919050565b7f4e487b7100000000000000000000000000000000000000000000000000000000600052604160045260246000fd5b62000358826200030d565b810181811067ffffffffffffffff821117156200037a57620003796200031e565b5b80604052505050565b60006200038f620002ef565b90506200039d82826200034d565b919050565b600067ffffffffffffffff821115620003c057620003bf6200031e565b5b620003cb826200030d565b9050602081019050919050565b60005b83811015620003f8578082015181840152602081019050620003db565b8381111562000408576000848401525b50505050565b6000620004256200041f84620003a2565b62000383565b90508281526020810184848401111562000444576200044362000308565b5b62000451848285620003d8565b509392505050565b600082601f83011262000471576200047062000303565b5b8151620004838482602086016200040e565b91505092915050565b6000819050919050565b620004a1816200048c565b8114620004ad57600080fd5b50565b600081519050620004c18162000496565b92915050565b600073ffffffffffffffffffffffffffffffffffffffff82169050919050565b6000620004f482620004c7565b9050919050565b6200050681620004e7565b81146200051257600080fd5b50565b6000815190506200052681620004fb565b92915050565b60008060008060808587031215620005495762000548620002f9565b5b600085015167ffffffffffffffff8111156200056a5762000569620002fe565b5b620005788782880162000459565b945050602085015167ffffffffffffffff8111156200059c576200059b620002fe565b5b620005aa8782880162000459565b9350506040620005bd87828801620004b0565b9250506060620005d08782880162000515565b91505092959194509250565b7f4e487b7100000000000000000000000000000000000000000000000000000000600052601160045260246000fd5b60008160011c9050919050565b6000808291508390505b60018511156200066a57808604811115620006425762000641620005dc565b5b6001851615620006525780820291505b808102905062000662856200060b565b945062000622565b94509492505050565b60008262000685576001905062000758565b8162000695576000905062000758565b8160018114620006ae5760028114620006b957620006ef565b600191505062000758565b60ff841115620006ce57620006cd620005dc565b5b8360020a915084821115620006e857620006e7620005dc565b5b5062000758565b5060208310610133831016604e8410600b8410161715620007295782820a905083811115620007235762000722620005dc565b5b62000758565b62000738848484600162000618565b92509050818404811115620007525762000751620005dc565b5b81810290505b9392505050565b600060ff82169050919050565b600062000779826200048c565b915062000786836200075f565b9250620007b57fffffffffffffffffffffffffffffffffffffffffffffffffffffffffffffffff848462000673565b905092915050565b6000620007ca826200048c565b9150620007d7836200048c565b9250817fffffffffffffffffffffffffffffffffffffffffffffffffffffffffffffffff0483118215151615620008135762000812620005dc565b5b828202905092915050565b600082825260208201905092915050565b7f45524332303a206d696e7420746f20746865207a65726f206164647265737300600082015250565b600062000867601f836200081e565b915062000874826200082f565b602082019050919050565b600060208201905081810360008301526200089a8162000858565b9050919050565b6000620008ae826200048c565b9150620008bb836200048c565b9250827fffffffffffffffffffffffffffffffffffffffffffffffffffffffffffffffff03821115620008f357620008f2620005dc565b5b828201905092915050565b62000909816200048c565b82525050565b6000602082019050620009266000830184620008fe565b92915050565b7f4e487b7100000000000000000000000000000000000000000000000000000000600052602260045260246000fd5b600060028204905060018216806200097457607f821691505b602082108114156200098b576200098a6200092c565b5b50919050565b6113aa80620009a16000396000f3fe608060405234801561001057600080fd5b50600436106100a95760003560e01c80633950935111610071578063395093511461016857806370a082311461019857806395d89b41146101c8578063a457c2d7146101e6578063a9059cbb14610216578063dd62ed3e14610246576100a9565b806306fdde03146100ae578063095ea7b3146100cc57806318160ddd146100fc57806323b872dd1461011a578063313ce5671461014a575b600080fd5b6100b6610276565b6040516100c39190610c3e565b60405180910390f35b6100e660048036038101906100e19190610cf9565b610308565b6040516100f39190610d54565b60405180910390f35b610104610326565b6040516101119190610d7e565b60405180910390f35b610134600480360381019061012f9190610d99565b610330565b6040516101419190610d54565b60405180910390f35b610152610428565b60405161015f9190610e08565b60405180910390f35b610182600480360381019061017d9190610cf9565b610431565b60405161018f9190610d54565b60405180910390f35b6101b260048036038101906101ad9190610e23565b6104dd565b6040516101bf9190610d7e565b60405180910390f35b6101d0610525565b6040516101dd9190610c3e565b60405180910390f35b61020060048036038101906101fb9190610cf9565b6105b7565b60405161020d9190610d54565b60405180910390f35b610230600480360381019061022b9190610cf9565b6106a2565b60405161023d9190610d54565b60405180910390f35b610260600480360381019061025b9190610e50565b6106c0565b60405161026d9190610d7e565b60405180910390f35b60606003805461028590610ebf565b80601f01602080910402602001604051908101604052809291908181526020018280546102b190610ebf565b80156102fe5780601f106102d3576101008083540402835291602001916102fe565b820191906000526020600020905b8154815290600101906020018083116102e157829003601f168201915b5050505050905090565b600061031c610315610747565b848461074f565b6001905092915050565b6000600254905090565b600061033d84848461091a565b6000600160008673ffffffffffffffffffffffffffffffffffffffff1673ffffffffffffffffffffffffffffffffffffffff1681526020019081526020016000206000610388610747565b73ffffffffffffffffffffffffffffffffffffffff1673ffffffffffffffffffffffffffffffffffffffff16815260200190815260200160002054905082811015610408576040517f08c379a00000000000000000000000000000000000000000000000000000000081526004016103ff90610f63565b60405180910390fd5b61041c85610414610747565b85840361074f565b60019150509392505050565b60006012905090565b60006104d361043e610747565b84846001600061044c610747565b73ffffffffffffffffffffffffffffffffffffffff1673ffffffffffffffffffffffffffffffffffffffff16815260200190815260200160002060008873ffffffffffffffffffffffffffffffffffffffff1673ffffffffffffffffffffffffffffffffffffffff168152602001908152602001600020546104ce9190610fb2565b61074f565b6001905092915050565b60008060008373ffffffffffffffffffffffffffffffffffffffff1673ffffffffffffffffffffffffffffffffffffffff168152602001908152602001600020549050919050565b60606004805461053490610ebf565b80601f016020809104026020016040519081016040528092919081815260200182805461056090610ebf565b80156105ad5780601f10610582576101008083540402835291602001916105ad565b820191906000526020600020905b81548152906001019060200180831161059057829003601f168201915b5050505050905090565b600080600160006105c6610747565b73ffffffffffffffffffffffffffffffffffffffff1673ffffffffffffffffffffffffffffffffffffffff16815260200190815260200160002060008573ffffffffffffffffffffffffffffffffffffffff1673ffffffffffffffffffffffffffffffffffffffff16815260200190815260200160002054905082811015610683576040517f08c379a000000000000000000000000000000000000000000000000000000000815260040161067a9061107a565b60405180910390fd5b61069761068e610747565b8585840361074f565b600191505092915050565b60006106b66106af610747565b848461091a565b6001905092915050565b6000600160008473ffffffffffffffffffffffffffffffffffffffff1673ffffffffffffffffffffffffffffffffffffffff16815260200190815260200160002060008373ffffffffffffffffffffffffffffffffffffffff1673ffffffffffffffffffffffffffffffffffffffff16815260200190815260200160002054905092915050565b600033905090565b600073ffffffffffffffffffffffffffffffffffffffff168373ffffffffffffffffffffffffffffffffffffffff1614156107bf576040517f08c379a00000000000000000000000000000000000000000000000000000000081526004016107b69061110c565b60405180910390fd5b600073ffffffffffffffffffffffffffffffffffffffff168273ffffffffffffffffffffffffffffffffffffffff16141561082f576040517f08c379a00000000000000000000000000000000000000000000000000000000081526004016108269061119e565b60405180910390fd5b80600160008573ffffffffffffffffffffffffffffffffffffffff1673ffffffffffffffffffffffffffffffffffffffff16815260200190815260200160002060008473ffffffffffffffffffffffffffffffffffffffff1673ffffffffffffffffffffffffffffffffffffffff168152602001908152602001600020819055508173ffffffffffffffffffffffffffffffffffffffff168373ffffffffffffffffffffffffffffffffffffffff167f8c5be1e5ebec7d5bd14f71427d1e84f3dd0314c0f7b2291e5b200ac8c7c3b9258360405161090d9190610d7e565b60405180910390a3505050565b600073ffffffffffffffffffffffffffffffffffffffff168373ffffffffffffffffffffffffffffffffffffffff16141561098a576040517f08c379a000000000000000000000000000000000000000000000000000000000815260040161098190611230565b60405180910390fd5b600073ffffffffffffffffffffffffffffffffffffffff168273ffffffffffffffffffffffffffffffffffffffff1614156109fa576040517f08c379a00000000000000000000000000000000000000000000000000000000081526004016109f1906112c2565b60405180910390fd5b610a05838383610b9b565b60008060008573ffffffffffffffffffffffffffffffffffffffff1673ffffffffffffffffffffffffffffffffffffffff16815260200190815260200160002054905081811015610a8b576040517f08c379a0000000000000000000000000000000000000000000000000000000008152600401610a8290611354565b60405180910390fd5b8181036000808673ffffffffffffffffffffffffffffffffffffffff1673ffffffffffffffffffffffffffffffffffffffff16815260200190815260200160002081905550816000808573ffffffffffffffffffffffffffffffffffffffff1673ffffffffffffffffffffffffffffffffffffffff1681526020019081526020016000206000828254610b1e9190610fb2565b925050819055508273ffffffffffffffffffffffffffffffffffffffff168473ffffffffffffffffffffffffffffffffffffffff167fddf252ad1be2c89b69c2b068fc378daa952ba7f163c4a11628f55a4df523b3ef84604051610b829190610d7e565b60405180910390a3610b95848484610ba0565b50505050565b505050565b505050565b600081519050919050565b600082825260208201905092915050565b60005b83811015610bdf578082015181840152602081019050610bc4565b83811115610bee576000848401525b50505050565b6000601f19601f8301169050919050565b6000610c1082610ba5565b610c1a8185610bb0565b9350610c2a818560208601610bc1565b610c3381610bf4565b840191505092915050565b60006020820190508181036000830152610c588184610c05565b905092915050565b600080fd5b600073ffffffffffffffffffffffffffffffffffffffff82169050919050565b6000610c9082610c65565b9050919050565b610ca081610c85565b8114610cab57600080fd5b50565b600081359050610cbd81610c97565b92915050565b6000819050919050565b610cd681610cc3565b8114610ce157600080fd5b50565b600081359050610cf381610ccd565b92915050565b60008060408385031215610d1057610d0f610c60565b5b6000610d1e85828601610cae565b9250506020610d2f85828601610ce4565b9150509250929050565b60008115159050919050565b610d4e81610d39565b82525050565b6000602082019050610d696000830184610d45565b92915050565b610d7881610cc3565b82525050565b6000602082019050610d936000830184610d6f565b92915050565b600080600060608486031215610db257610db1610c60565b5b6000610dc086828701610cae565b9350506020610dd186828701610cae565b9250506040610de286828701610ce4565b9150509250925092565b600060ff82169050919050565b610e0281610dec565b82525050565b6000602082019050610e1d6000830184610df9565b92915050565b600060208284031215610e3957610e38610c60565b5b6000610e4784828501610cae565b91505092915050565b60008060408385031215610e6757610e66610c60565b5b6000610e7585828601610cae565b9250506020610e8685828601610cae565b9150509250929050565b7f4e487b7100000000000000000000000000000000000000000000000000000000600052602260045260246000fd5b60006002820490506001821680610ed757607f821691505b60208210811415610eeb57610eea610e90565b5b50919050565b7f45524332303a207472616e7366657220616d6f756e742065786365656473206160008201527f6c6c6f77616e6365000000000000000000000000000000000000000000000000602082015250565b6000610f4d602883610bb0565b9150610f5882610ef1565b604082019050919050565b60006020820190508181036000830152610f7c81610f40565b9050919050565b7f4e487b7100000000000000000000000000000000000000000000000000000000600052601160045260246000fd5b6000610fbd82610cc3565b9150610fc883610cc3565b9250827fffffffffffffffffffffffffffffffffffffffffffffffffffffffffffffffff03821115610ffd57610ffc610f83565b5b828201905092915050565b7f45524332303a2064656372656173656420616c6c6f77616e63652062656c6f7760008201527f207a65726f000000000000000000000000000000000000000000000000000000602082015250565b6000611064602583610bb0565b915061106f82611008565b604082019050919050565b6000602082019050818103600083015261109381611057565b9050919050565b7f45524332303a20617070726f76652066726f6d20746865207a65726f2061646460008201527f7265737300000000000000000000000000000000000000000000000000000000602082015250565b60006110f6602483610bb0565b91506111018261109a565b604082019050919050565b60006020820190508181036000830152611125816110e9565b9050919050565b7f45524332303a20617070726f766520746f20746865207a65726f20616464726560008201527f7373000000000000000000000000000000000000000000000000000000000000602082015250565b6000611188602283610bb0565b91506111938261112c565b604082019050919050565b600060208201905081810360008301526111b78161117b565b9050919050565b7f45524332303a207472616e736665722066726f6d20746865207a65726f20616460008201527f6472657373000000000000000000000000000000000000000000000000000000602082015250565b600061121a602583610bb0565b9150611225826111be565b604082019050919050565b600060208201905081810360008301526112498161120d565b9050919050565b7f45524332303a207472616e7366657220746f20746865207a65726f206164647260008201527f6573730000000000000000000000000000000000000000000000000000000000602082015250565b60006112ac602383610bb0565b91506112b782611250565b604082019050919050565b600060208201905081810360008301526112db8161129f565b9050919050565b7f45524332303a207472616e7366657220616d6f756e742065786365656473206260008201527f616c616e63650000000000000000000000000000000000000000000000000000602082015250565b600061133e602683610bb0565b9150611349826112e2565b604082019050919050565b6000602082019050818103600083015261136d81611331565b905091905056fea26469706673582212202144b887f97014667cfa89d5daa9943623d05bc2a6dd8c891bc3aecaebbf0ff864736f6c634300080b0033a2646970667358221220f92a6b270970bccbea417e2bb12e866473ee4feb519e335e1bd02f811d07e12864736f6c634300080b0033",
  "immutableReferences": {},
  "source": "// SPDX-License-Identifier: MIT\npragma solidity ^0.8.0;\n\n\nimport \"./Token.sol\";\n\n\ncontract Factory {\n    event TokenCreated(\n        address indexed owner,\n        address token\n    );\n\n    struct TokenInformation {\n        string name;\n        string symbol;\n        address owner;\n        address deployedAt;\n    }\n\n    address public owner;\n    TokenInformation[] public tokens;\n\n    constructor() {\n        owner = msg.sender;\n    }\n\n    function createToken(\n        string memory name_,\n        string memory symbol_,\n        uint initial_\n    ) public returns (address) {\n        Token token = new Token(name_, symbol_, initial_, msg.sender);\n        TokenInformation memory newTokenInformation = TokenInformation({\n            name: name_,\n            symbol: symbol_,\n            owner: msg.sender,\n            deployedAt: address(token)\n        });\n        tokens.push(newTokenInformation);\n\n        emit TokenCreated(msg.sender, address(token));\n\n        return address(token);\n        // token.receipt.rawLogs[0].address is ERC-20 Contract Address.\n    }\n\n    function getTokens() public view returns (TokenInformation[] memory) {\n        return tokens;\n    }\n}\n",
  "sourcePath": "/Users/dobestan/dev/token-factory/contracts/Factory.sol",
  "compiler": {
    "name": "solc",
    "version": "0.8.11+commit.d7f03943.Emscripten.clang"
  },
  "schemaVersion": "3.4.4",
  "updatedAt": "2022-02-05T09:54:55.465Z",
  "devdoc": {
    "kind": "dev",
    "methods": {},
    "version": 1
  },
  "userdoc": {
    "kind": "user",
    "methods": {},
    "version": 1
  }
}